{
  "_format": "hh-sol-artifact-1",
  "contractName": "KyeTrust",
  "sourceName": "contracts/KyeTrust.sol",
  "abi": [
    {
      "inputs": [
        {
          "internalType": "string",
          "name": "_name",
          "type": "string"
        },
        {
          "internalType": "uint256",
          "name": "_goalAmount",
          "type": "uint256"
        },
        {
          "internalType": "uint256",
          "name": "_contributionAmount",
          "type": "uint256"
        },
        {
          "internalType": "uint256",
          "name": "_duration",
          "type": "uint256"
        },
        {
          "internalType": "address[]",
          "name": "_members",
          "type": "address[]"
        },
        {
          "internalType": "bool",
          "name": "_multiSigEnabled",
          "type": "bool"
        },
        {
          "internalType": "uint256",
          "name": "_requiredConfirmations",
          "type": "uint256"
        }
      ],
      "stateMutability": "nonpayable",
      "type": "constructor"
    },
    {
      "anonymous": false,
      "inputs": [
        {
          "indexed": true,
          "internalType": "address",
          "name": "member",
          "type": "address"
        },
        {
          "indexed": false,
          "internalType": "uint256",
          "name": "turn",
          "type": "uint256"
        },
        {
          "indexed": false,
          "internalType": "uint256",
          "name": "amount",
          "type": "uint256"
        }
      ],
      "name": "ContributionReceived",
      "type": "event"
    },
    {
      "anonymous": false,
      "inputs": [],
      "name": "KyeStarted",
      "type": "event"
    },
    {
      "anonymous": false,
      "inputs": [
        {
          "indexed": true,
          "internalType": "address",
          "name": "recipient",
          "type": "address"
        },
        {
          "indexed": false,
          "internalType": "uint256",
          "name": "turn",
          "type": "uint256"
        },
        {
          "indexed": false,
          "internalType": "uint256",
          "name": "amount",
          "type": "uint256"
        }
      ],
      "name": "PayoutMade",
      "type": "event"
    },
    {
      "anonymous": false,
      "inputs": [
        {
          "indexed": true,
          "internalType": "address",
          "name": "member",
          "type": "address"
        },
        {
          "indexed": false,
          "internalType": "uint256",
          "name": "turn",
          "type": "uint256"
        },
        {
          "indexed": false,
          "internalType": "uint256",
          "name": "penaltyAmount",
          "type": "uint256"
        }
      ],
      "name": "PenaltyApplied",
      "type": "event"
    },
    {
      "inputs": [
        {
          "internalType": "address",
          "name": "_member",
          "type": "address"
        }
      ],
      "name": "applyPenalty",
      "outputs": [],
      "stateMutability": "nonpayable",
      "type": "function"
    },
    {
      "inputs": [
        {
          "internalType": "address",
          "name": "_member",
          "type": "address"
        },
        {
          "internalType": "enum KyeTrust.Role",
          "name": "_role",
          "type": "uint8"
        }
      ],
      "name": "assignRole",
      "outputs": [],
      "stateMutability": "nonpayable",
      "type": "function"
    },
    {
      "inputs": [
        {
          "internalType": "bytes32",
          "name": "",
          "type": "bytes32"
        }
      ],
      "name": "confirmationCount",
      "outputs": [
        {
          "internalType": "uint256",
          "name": "",
          "type": "uint256"
        }
      ],
      "stateMutability": "view",
      "type": "function"
    },
    {
      "inputs": [
        {
          "internalType": "bytes32",
          "name": "",
          "type": "bytes32"
        },
        {
          "internalType": "address",
          "name": "",
          "type": "address"
        }
      ],
      "name": "confirmations",
      "outputs": [
        {
          "internalType": "bool",
          "name": "",
          "type": "bool"
        }
      ],
      "stateMutability": "view",
      "type": "function"
    },
    {
      "inputs": [],
      "name": "contribute",
      "outputs": [],
      "stateMutability": "payable",
      "type": "function"
    },
    {
      "inputs": [],
      "name": "contributionAmount",
      "outputs": [
        {
          "internalType": "uint256",
          "name": "",
          "type": "uint256"
        }
      ],
      "stateMutability": "view",
      "type": "function"
    },
    {
      "inputs": [],
      "name": "currentTurn",
      "outputs": [
        {
          "internalType": "uint256",
          "name": "",
          "type": "uint256"
        }
      ],
      "stateMutability": "view",
      "type": "function"
    },
    {
      "inputs": [],
      "name": "duration",
      "outputs": [
        {
          "internalType": "uint256",
          "name": "",
          "type": "uint256"
        }
      ],
      "stateMutability": "view",
      "type": "function"
    },
    {
      "inputs": [
        {
          "internalType": "bytes32",
          "name": "_actionHash",
          "type": "bytes32"
        }
      ],
      "name": "getConfirmationStatus",
      "outputs": [
        {
          "internalType": "uint256",
          "name": "",
          "type": "uint256"
        },
        {
          "internalType": "bool",
          "name": "",
          "type": "bool"
        }
      ],
      "stateMutability": "view",
      "type": "function"
    },
    {
      "inputs": [
        {
          "internalType": "address",
          "name": "_member",
          "type": "address"
        }
      ],
      "name": "getRole",
      "outputs": [
        {
          "internalType": "enum KyeTrust.Role",
          "name": "",
          "type": "uint8"
        }
      ],
      "stateMutability": "view",
      "type": "function"
    },
    {
      "inputs": [],
      "name": "getState",
      "outputs": [
        {
          "internalType": "string",
          "name": "",
          "type": "string"
        }
      ],
      "stateMutability": "view",
      "type": "function"
    },
    {
      "inputs": [],
      "name": "goalAmount",
      "outputs": [
        {
          "internalType": "uint256",
          "name": "",
          "type": "uint256"
        }
      ],
      "stateMutability": "view",
      "type": "function"
    },
    {
      "inputs": [],
      "name": "hasAllContributedForCurrentTurn",
      "outputs": [
        {
          "internalType": "bool",
          "name": "",
          "type": "bool"
        }
      ],
      "stateMutability": "view",
      "type": "function"
    },
    {
      "inputs": [
        {
          "internalType": "uint256",
          "name": "",
          "type": "uint256"
        },
        {
          "internalType": "address",
          "name": "",
          "type": "address"
        }
      ],
      "name": "hasPaid",
      "outputs": [
        {
          "internalType": "bool",
          "name": "",
          "type": "bool"
        }
      ],
      "stateMutability": "view",
      "type": "function"
    },
    {
      "inputs": [
        {
          "internalType": "address",
          "name": "",
          "type": "address"
        }
      ],
      "name": "isMember",
      "outputs": [
        {
          "internalType": "bool",
          "name": "",
          "type": "bool"
        }
      ],
      "stateMutability": "view",
      "type": "function"
    },
    {
      "inputs": [
        {
          "internalType": "address",
          "name": "_member",
          "type": "address"
        }
      ],
      "name": "isOverdue",
      "outputs": [
        {
          "internalType": "bool",
          "name": "",
          "type": "bool"
        }
      ],
      "stateMutability": "view",
      "type": "function"
    },
    {
      "inputs": [
        {
          "internalType": "address",
          "name": "",
          "type": "address"
        }
      ],
      "name": "lastPaidTurn",
      "outputs": [
        {
          "internalType": "uint256",
          "name": "",
          "type": "uint256"
        }
      ],
      "stateMutability": "view",
      "type": "function"
    },
    {
      "inputs": [
        {
          "internalType": "address",
          "name": "",
          "type": "address"
        }
      ],
      "name": "memberRoles",
      "outputs": [
        {
          "internalType": "enum KyeTrust.Role",
          "name": "",
          "type": "uint8"
        }
      ],
      "stateMutability": "view",
      "type": "function"
    },
    {
      "inputs": [
        {
          "internalType": "uint256",
          "name": "",
          "type": "uint256"
        }
      ],
      "name": "members",
      "outputs": [
        {
          "internalType": "address",
          "name": "",
          "type": "address"
        }
      ],
      "stateMutability": "view",
      "type": "function"
    },
    {
      "inputs": [],
      "name": "multiSigEnabled",
      "outputs": [
        {
          "internalType": "bool",
          "name": "",
          "type": "bool"
        }
      ],
      "stateMutability": "view",
      "type": "function"
    },
    {
      "inputs": [],
      "name": "name",
      "outputs": [
        {
          "internalType": "string",
          "name": "",
          "type": "string"
        }
      ],
      "stateMutability": "view",
      "type": "function"
    },
    {
      "inputs": [],
      "name": "owner",
      "outputs": [
        {
          "internalType": "address",
          "name": "",
          "type": "address"
        }
      ],
      "stateMutability": "view",
      "type": "function"
    },
    {
      "inputs": [],
      "name": "payout",
      "outputs": [],
      "stateMutability": "nonpayable",
      "type": "function"
    },
    {
      "inputs": [],
      "name": "pot",
      "outputs": [
        {
          "internalType": "uint256",
          "name": "",
          "type": "uint256"
        }
      ],
      "stateMutability": "view",
      "type": "function"
    },
    {
      "inputs": [],
      "name": "requiredConfirmations",
      "outputs": [
        {
          "internalType": "uint256",
          "name": "",
          "type": "uint256"
        }
      ],
      "stateMutability": "view",
      "type": "function"
    },
    {
      "inputs": [],
      "name": "start",
      "outputs": [],
      "stateMutability": "nonpayable",
      "type": "function"
    },
    {
      "inputs": [],
      "name": "state",
      "outputs": [
        {
          "internalType": "enum KyeTrust.State",
          "name": "",
          "type": "uint8"
        }
      ],
      "stateMutability": "view",
      "type": "function"
    }
  ],
  "bytecode": "0x60806040523480156200001157600080fd5b50604051620038a1380380620038a183398181016040528101906200003791906200085d565b336000806101000a81548173ffffffffffffffffffffffffffffffffffffffff021916908373ffffffffffffffffffffffffffffffffffffffff160217905550866001908162000088919062000b8f565b5085600281905550846003819055508360048190555060016005819055506000600b60006101000a81548160ff02191690836002811115620000cf57620000ce62000c76565b5b021790555081600b60016101000a81548160ff0219169083151502179055508115620001565760008111801562000107575082518111155b62000149576040517f08c379a0000000000000000000000000000000000000000000000000000000008152600401620001409062000d06565b60405180910390fd5b80600c819055506200015f565b6001600c819055505b6003600f60008060009054906101000a900473ffffffffffffffffffffffffffffffffffffffff1673ffffffffffffffffffffffffffffffffffffffff1673ffffffffffffffffffffffffffffffffffffffff16815260200190815260200160002060006101000a81548160ff02191690836003811115620001e657620001e562000c76565b5b021790555060005b835181101562000504576008600085838151811062000212576200021162000d28565b5b602002602001015173ffffffffffffffffffffffffffffffffffffffff1673ffffffffffffffffffffffffffffffffffffffff16815260200190815260200160002060009054906101000a900460ff1615620002a5576040517f08c379a00000000000000000000000000000000000000000000000000000000081526004016200029c9062000da7565b60405180910390fd5b600160086000868481518110620002c157620002c062000d28565b5b602002602001015173ffffffffffffffffffffffffffffffffffffffff1673ffffffffffffffffffffffffffffffffffffffff16815260200190815260200160002060006101000a81548160ff021916908315150217905550600784828151811062000332576200033162000d28565b5b60200260200101519080600181540180825580915050600190039060005260206000200160009091909190916101000a81548173ffffffffffffffffffffffffffffffffffffffff021916908373ffffffffffffffffffffffffffffffffffffffff16021790555060008054906101000a900473ffffffffffffffffffffffffffffffffffffffff1673ffffffffffffffffffffffffffffffffffffffff16848281518110620003e757620003e662000d28565b5b602002602001015173ffffffffffffffffffffffffffffffffffffffff161462000494576001600f600086848151811062000427576200042662000d28565b5b602002602001015173ffffffffffffffffffffffffffffffffffffffff1673ffffffffffffffffffffffffffffffffffffffff16815260200190815260200160002060006101000a81548160ff021916908360038111156200048e576200048d62000c76565b5b02179055505b6000600a6000868481518110620004b057620004af62000d28565b5b602002602001015173ffffffffffffffffffffffffffffffffffffffff1673ffffffffffffffffffffffffffffffffffffffff168152602001908152602001600020819055508080600101915050620001ee565b505050505050505062000dc9565b6000604051905090565b600080fd5b600080fd5b600080fd5b600080fd5b6000601f19601f8301169050919050565b7f4e487b7100000000000000000000000000000000000000000000000000000000600052604160045260246000fd5b6200057b8262000530565b810181811067ffffffffffffffff821117156200059d576200059c62000541565b5b80604052505050565b6000620005b262000512565b9050620005c0828262000570565b919050565b600067ffffffffffffffff821115620005e357620005e262000541565b5b620005ee8262000530565b9050602081019050919050565b60005b838110156200061b578082015181840152602081019050620005fe565b60008484015250505050565b60006200063e6200063884620005c5565b620005a6565b9050828152602081018484840111156200065d576200065c6200052b565b5b6200066a848285620005fb565b509392505050565b600082601f8301126200068a576200068962000526565b5b81516200069c84826020860162000627565b91505092915050565b6000819050919050565b620006ba81620006a5565b8114620006c657600080fd5b50565b600081519050620006da81620006af565b92915050565b600067ffffffffffffffff821115620006fe57620006fd62000541565b5b602082029050602081019050919050565b600080fd5b600073ffffffffffffffffffffffffffffffffffffffff82169050919050565b6000620007418262000714565b9050919050565b620007538162000734565b81146200075f57600080fd5b50565b600081519050620007738162000748565b92915050565b6000620007906200078a84620006e0565b620005a6565b90508083825260208201905060208402830185811115620007b657620007b56200070f565b5b835b81811015620007e35780620007ce888262000762565b845260208401935050602081019050620007b8565b5050509392505050565b600082601f83011262000805576200080462000526565b5b81516200081784826020860162000779565b91505092915050565b60008115159050919050565b620008378162000820565b81146200084357600080fd5b50565b60008151905062000857816200082c565b92915050565b600080600080600080600060e0888a0312156200087f576200087e6200051c565b5b600088015167ffffffffffffffff811115620008a0576200089f62000521565b5b620008ae8a828b0162000672565b9750506020620008c18a828b01620006c9565b9650506040620008d48a828b01620006c9565b9550506060620008e78a828b01620006c9565b945050608088015167ffffffffffffffff8111156200090b576200090a62000521565b5b620009198a828b01620007ed565b93505060a06200092c8a828b0162000846565b92505060c06200093f8a828b01620006c9565b91505092959891949750929550565b600081519050919050565b7f4e487b7100000000000000000000000000000000000000000000000000000000600052602260045260246000fd5b60006002820490506001821680620009a157607f821691505b602082108103620009b757620009b662000959565b5b50919050565b60008190508160005260206000209050919050565b60006020601f8301049050919050565b600082821b905092915050565b60006008830262000a217fffffffffffffffffffffffffffffffffffffffffffffffffffffffffffffffff82620009e2565b62000a2d8683620009e2565b95508019841693508086168417925050509392505050565b6000819050919050565b600062000a7062000a6a62000a6484620006a5565b62000a45565b620006a5565b9050919050565b6000819050919050565b62000a8c8362000a4f565b62000aa462000a9b8262000a77565b848454620009ef565b825550505050565b600090565b62000abb62000aac565b62000ac881848462000a81565b505050565b5b8181101562000af05762000ae460008262000ab1565b60018101905062000ace565b5050565b601f82111562000b3f5762000b0981620009bd565b62000b1484620009d2565b8101602085101562000b24578190505b62000b3c62000b3385620009d2565b83018262000acd565b50505b505050565b600082821c905092915050565b600062000b646000198460080262000b44565b1980831691505092915050565b600062000b7f838362000b51565b9150826002028217905092915050565b62000b9a826200094e565b67ffffffffffffffff81111562000bb65762000bb562000541565b5b62000bc2825462000988565b62000bcf82828562000af4565b600060209050601f83116001811462000c07576000841562000bf2578287015190505b62000bfe858262000b71565b86555062000c6e565b601f19841662000c1786620009bd565b60005b8281101562000c415784890151825560018201915060208501945060208101905062000c1a565b8683101562000c61578489015162000c5d601f89168262000b51565b8355505b6001600288020188555050505b505050505050565b7f4e487b7100000000000000000000000000000000000000000000000000000000600052602160045260246000fd5b600082825260208201905092915050565b7f496e76616c696420726571756972656420636f6e6669726d6174696f6e730000600082015250565b600062000cee601e8362000ca5565b915062000cfb8262000cb6565b602082019050919050565b6000602082019050818103600083015262000d218162000cdf565b9050919050565b7f4e487b7100000000000000000000000000000000000000000000000000000000600052603260045260246000fd5b7f4475706c6963617465206d656d62657200000000000000000000000000000000600082015250565b600062000d8f60108362000ca5565b915062000d9c8262000d57565b602082019050919050565b6000602082019050818103600083015262000dc28162000d80565b9050919050565b612ac88062000dd96000396000f3fe60806040526004361061019c5760003560e01c8063630a195b116100ec578063be9a65551161008a578063d7bb99ba11610064578063d7bb99ba146105e2578063d8bc7fff146105ec578063deb6128614610629578063f7a27809146106545761019c565b8063be9a655514610563578063c19d93fb1461057a578063d2f8c761146105a55761019c565b80638da5cb5b116100c65780638da5cb5b146104a5578063a230c524146104d0578063a9a5d7501461050d578063bc9fc39d146105385761019c565b8063630a195b1461043a57806363bd1d4a1461046357806382e717f71461047a5761019c565b806332f95de21161015957806359bf77df1161013357806359bf77df146103585780635daf08ca146103955780635fa0b65f146103d257806360d46f2e146103fd5761019c565b806332f95de2146102c757806344276733146102f05780634ba2363a1461032d5761019c565b806306fdde03146101a15780630c4ecab4146101cc5780630cdca9e6146102095780630fb5a6b4146102465780631865c57d146102715780632636b9451461029c575b600080fd5b3480156101ad57600080fd5b506101b6610692565b6040516101c39190611e16565b60405180910390f35b3480156101d857600080fd5b506101f360048036038101906101ee9190611ed1565b610720565b6040516102009190611f2c565b60405180910390f35b34801561021557600080fd5b50610230600480360381019061022b9190611f47565b61074f565b60405161023d9190611feb565b60405180910390f35b34801561025257600080fd5b5061025b61076f565b604051610268919061201f565b60405180910390f35b34801561027d57600080fd5b50610286610775565b6040516102939190611e16565b60405180910390f35b3480156102a857600080fd5b506102b161091a565b6040516102be919061201f565b60405180910390f35b3480156102d357600080fd5b506102ee60048036038101906102e99190611f47565b610920565b005b3480156102fc57600080fd5b5061031760048036038101906103129190611f47565b610b12565b6040516103249190611feb565b60405180910390f35b34801561033957600080fd5b50610342610b68565b60405161034f919061201f565b60405180910390f35b34801561036457600080fd5b5061037f600480360381019061037a919061203a565b610b6e565b60405161038c919061201f565b60405180910390f35b3480156103a157600080fd5b506103bc60048036038101906103b79190612093565b610b86565b6040516103c991906120cf565b60405180910390f35b3480156103de57600080fd5b506103e7610bc5565b6040516103f4919061201f565b60405180910390f35b34801561040957600080fd5b50610424600480360381019061041f9190611f47565b610bcb565b604051610431919061201f565b60405180910390f35b34801561044657600080fd5b50610461600480360381019061045c919061210f565b610be3565b005b34801561046f57600080fd5b50610478610d68565b005b34801561048657600080fd5b5061048f61135c565b60405161049c919061201f565b60405180910390f35b3480156104b157600080fd5b506104ba611362565b6040516104c791906120cf565b60405180910390f35b3480156104dc57600080fd5b506104f760048036038101906104f29190611f47565b611386565b6040516105049190611f2c565b60405180910390f35b34801561051957600080fd5b506105226113a6565b60405161052f9190611f2c565b60405180910390f35b34801561054457600080fd5b5061054d61147d565b60405161055a9190611f2c565b60405180910390f35b34801561056f57600080fd5b50610578611490565b005b34801561058657600080fd5b5061058f61186a565b60405161059c9190612197565b60405180910390f35b3480156105b157600080fd5b506105cc60048036038101906105c79190611f47565b61187d565b6040516105d99190611f2c565b60405180910390f35b6105ea611933565b005b3480156105f857600080fd5b50610613600480360381019061060e91906121b2565b611c37565b6040516106209190611f2c565b60405180910390f35b34801561063557600080fd5b5061063e611c66565b60405161064b919061201f565b60405180910390f35b34801561066057600080fd5b5061067b6004803603810190610676919061203a565b611c6c565b6040516106899291906121f2565b60405180910390f35b6001805461069f9061224a565b80601f01602080910402602001604051908101604052809291908181526020018280546106cb9061224a565b80156107185780601f106106ed57610100808354040283529160200191610718565b820191906000526020600020905b8154815290600101906020018083116106fb57829003601f168201915b505050505081565b600d6020528160005260406000206020528060005260406000206000915091509054906101000a900460ff1681565b600f6020528060005260406000206000915054906101000a900460ff1681565b60045481565b60606000600281111561078b5761078a611f74565b5b600b60009054906101000a900460ff1660028111156107ad576107ac611f74565b5b036107ef576040518060400160405280600781526020017f43726561746564000000000000000000000000000000000000000000000000008152509050610917565b6001600281111561080357610802611f74565b5b600b60009054906101000a900460ff16600281111561082557610824611f74565b5b03610867576040518060400160405280600681526020017f41637469766500000000000000000000000000000000000000000000000000008152509050610917565b60028081111561087a57610879611f74565b5b600b60009054906101000a900460ff16600281111561089c5761089b611f74565b5b036108de576040518060400160405280600681526020017f436c6f73656400000000000000000000000000000000000000000000000000008152509050610917565b6040518060400160405280600781526020017f556e6b6e6f776e0000000000000000000000000000000000000000000000000081525090505b90565b60025481565b600380600381111561093557610934611f74565b5b600f60003373ffffffffffffffffffffffffffffffffffffffff1673ffffffffffffffffffffffffffffffffffffffff16815260200190815260200160002060009054906101000a900460ff16600381111561099457610993611f74565b5b146109d4576040517f08c379a00000000000000000000000000000000000000000000000000000000081526004016109cb906122c7565b60405180910390fd5b600860008373ffffffffffffffffffffffffffffffffffffffff1673ffffffffffffffffffffffffffffffffffffffff16815260200190815260200160002060009054906101000a900460ff16610a60576040517f08c379a0000000000000000000000000000000000000000000000000000000008152600401610a5790612333565b60405180910390fd5b610a698261187d565b610aa8576040517f08c379a0000000000000000000000000000000000000000000000000000000008152600401610a9f9061239f565b60405180910390fd5b6000600a600354610ab9919061241d565b90508273ffffffffffffffffffffffffffffffffffffffff167fcf40cadcd86c14cb7e696a86578255719f67bc54bf991d45d267ee6e01467c1960055483604051610b0592919061244e565b60405180910390a2505050565b6000600f60008373ffffffffffffffffffffffffffffffffffffffff1673ffffffffffffffffffffffffffffffffffffffff16815260200190815260200160002060009054906101000a900460ff169050919050565b60065481565b600e6020528060005260406000206000915090505481565b60078181548110610b9657600080fd5b906000526020600020016000915054906101000a900473ffffffffffffffffffffffffffffffffffffffff1681565b60035481565b600a6020528060005260406000206000915090505481565b60008054906101000a900473ffffffffffffffffffffffffffffffffffffffff1673ffffffffffffffffffffffffffffffffffffffff163373ffffffffffffffffffffffffffffffffffffffff1614610c71576040517f08c379a0000000000000000000000000000000000000000000000000000000008152600401610c68906124e9565b60405180910390fd5b600860008373ffffffffffffffffffffffffffffffffffffffff1673ffffffffffffffffffffffffffffffffffffffff16815260200190815260200160002060009054906101000a900460ff16610cfd576040517f08c379a0000000000000000000000000000000000000000000000000000000008152600401610cf49061257b565b60405180910390fd5b80600f60008473ffffffffffffffffffffffffffffffffffffffff1673ffffffffffffffffffffffffffffffffffffffff16815260200190815260200160002060006101000a81548160ff02191690836003811115610d5f57610d5e611f74565b5b02179055505050565b600860003373ffffffffffffffffffffffffffffffffffffffff1673ffffffffffffffffffffffffffffffffffffffff16815260200190815260200160002060009054906101000a900460ff16610df4576040517f08c379a0000000000000000000000000000000000000000000000000000000008152600401610deb906125e7565b60405180910390fd5b6002806003811115610e0957610e08611f74565b5b600f60003373ffffffffffffffffffffffffffffffffffffffff1673ffffffffffffffffffffffffffffffffffffffff16815260200190815260200160002060009054906101000a900460ff166003811115610e6857610e67611f74565b5b14610ea8576040517f08c379a0000000000000000000000000000000000000000000000000000000008152600401610e9f906122c7565b60405180910390fd5b60016002811115610ebc57610ebb611f74565b5b600b60009054906101000a900460ff166002811115610ede57610edd611f74565b5b14610f1e576040517f08c379a0000000000000000000000000000000000000000000000000000000008152600401610f1590612653565b60405180910390fd5b610f266113a6565b610f65576040517f08c379a0000000000000000000000000000000000000000000000000000000008152600401610f5c906126e5565b60405180910390fd5b60076001600554610f769190612705565b81548110610f8757610f86612739565b5b9060005260206000200160009054906101000a900473ffffffffffffffffffffffffffffffffffffffff1673ffffffffffffffffffffffffffffffffffffffff163373ffffffffffffffffffffffffffffffffffffffff161461101f576040517f08c379a0000000000000000000000000000000000000000000000000000000008152600401611016906127da565b60405180910390fd5b600b60019054906101000a900460ff16156111e95760007f178d43fbf746d647da30283855ee0684a0b31369d35c87e8c6b4aa551d250c09905060001515600d600083815260200190815260200160002060003373ffffffffffffffffffffffffffffffffffffffff1673ffffffffffffffffffffffffffffffffffffffff16815260200190815260200160002060009054906101000a900460ff161515146110fd576040517f08c379a00000000000000000000000000000000000000000000000000000000081526004016110f490612846565b60405180910390fd5b6001600d600083815260200190815260200160002060003373ffffffffffffffffffffffffffffffffffffffff1673ffffffffffffffffffffffffffffffffffffffff16815260200190815260200160002060006101000a81548160ff021916908315150217905550600e6000828152602001908152602001600020600081548092919061118a90612866565b9190505550600c54600e60008381526020019081526020016000205410156111e7576040517f08c379a00000000000000000000000000000000000000000000000000000000081526004016111de906128fa565b60405180910390fd5b505b6000600760016005546111fc9190612705565b8154811061120d5761120c612739565b5b9060005260206000200160009054906101000a900473ffffffffffffffffffffffffffffffffffffffff1690508073ffffffffffffffffffffffffffffffffffffffff166108fc6006549081150290604051600060405180830381858888f19350505050158015611282573d6000803e3d6000fd5b508073ffffffffffffffffffffffffffffffffffffffff167f072c40752b50e77bf22285251805c7f7884a12a4c07f29697909bea49b30571e6005546006546040516112cf92919061244e565b60405180910390a26000600681905550600560008154809291906112f290612866565b91905055506113207f178d43fbf746d647da30283855ee0684a0b31369d35c87e8c6b4aa551d250c09611ca5565b6004546005541115611358576002600b60006101000a81548160ff0219169083600281111561135257611351611f74565b5b02179055505b5050565b600c5481565b60008054906101000a900473ffffffffffffffffffffffffffffffffffffffff1681565b60086020528060005260406000206000915054906101000a900460ff1681565b600080600090505b600780549050811015611474576009600060055481526020019081526020016000206000600783815481106113e6576113e5612739565b5b9060005260206000200160009054906101000a900473ffffffffffffffffffffffffffffffffffffffff1673ffffffffffffffffffffffffffffffffffffffff1673ffffffffffffffffffffffffffffffffffffffff16815260200190815260200160002060009054906101000a900460ff1661146757600091505061147a565b80806001019150506113ae565b50600190505b90565b600b60019054906101000a900460ff1681565b600860003373ffffffffffffffffffffffffffffffffffffffff1673ffffffffffffffffffffffffffffffffffffffff16815260200190815260200160002060009054906101000a900460ff1661151c576040517f08c379a0000000000000000000000000000000000000000000000000000000008152600401611513906125e7565b60405180910390fd5b600380600381111561153157611530611f74565b5b600f60003373ffffffffffffffffffffffffffffffffffffffff1673ffffffffffffffffffffffffffffffffffffffff16815260200190815260200160002060009054906101000a900460ff1660038111156115905761158f611f74565b5b146115d0576040517f08c379a00000000000000000000000000000000000000000000000000000000081526004016115c7906122c7565b60405180910390fd5b600060028111156115e4576115e3611f74565b5b600b60009054906101000a900460ff16600281111561160657611605611f74565b5b14611646576040517f08c379a000000000000000000000000000000000000000000000000000000000815260040161163d90612966565b60405180910390fd5b600b60019054906101000a900460ff16156118105760007f94fee7ea877e5153983769a75f517c3a9521c23a0b1ea6378a70525280e28c76905060001515600d600083815260200190815260200160002060003373ffffffffffffffffffffffffffffffffffffffff1673ffffffffffffffffffffffffffffffffffffffff16815260200190815260200160002060009054906101000a900460ff16151514611724576040517f08c379a000000000000000000000000000000000000000000000000000000000815260040161171b90612846565b60405180910390fd5b6001600d600083815260200190815260200160002060003373ffffffffffffffffffffffffffffffffffffffff1673ffffffffffffffffffffffffffffffffffffffff16815260200190815260200160002060006101000a81548160ff021916908315150217905550600e600082815260200190815260200160002060008154809291906117b190612866565b9190505550600c54600e600083815260200190815260200160002054101561180e576040517f08c379a0000000000000000000000000000000000000000000000000000000008152600401611805906128fa565b60405180910390fd5b505b6001600b60006101000a81548160ff0219169083600281111561183657611835611f74565b5b02179055507f23362d3186a097e31a31b9405db14a5e7e68caeb43749ef8d8d39edf47b9d64560405160405180910390a150565b600b60009054906101000a900460ff1681565b6000600a60008373ffffffffffffffffffffffffffffffffffffffff1673ffffffffffffffffffffffffffffffffffffffff1681526020019081526020016000205460055411801561192c575060096000600554815260200190815260200160002060008373ffffffffffffffffffffffffffffffffffffffff1673ffffffffffffffffffffffffffffffffffffffff16815260200190815260200160002060009054906101000a900460ff16155b9050919050565b600860003373ffffffffffffffffffffffffffffffffffffffff1673ffffffffffffffffffffffffffffffffffffffff16815260200190815260200160002060009054906101000a900460ff166119bf576040517f08c379a00000000000000000000000000000000000000000000000000000000081526004016119b6906125e7565b60405180910390fd5b600160028111156119d3576119d2611f74565b5b600b60009054906101000a900460ff1660028111156119f5576119f4611f74565b5b14611a35576040517f08c379a0000000000000000000000000000000000000000000000000000000008152600401611a2c90612653565b60405180910390fd5b6003543414611a79576040517f08c379a0000000000000000000000000000000000000000000000000000000008152600401611a70906129d2565b60405180910390fd5b60096000600554815260200190815260200160002060003373ffffffffffffffffffffffffffffffffffffffff1673ffffffffffffffffffffffffffffffffffffffff16815260200190815260200160002060009054906101000a900460ff1615611b19576040517f08c379a0000000000000000000000000000000000000000000000000000000008152600401611b1090612a3e565b60405180910390fd5b600160096000600554815260200190815260200160002060003373ffffffffffffffffffffffffffffffffffffffff1673ffffffffffffffffffffffffffffffffffffffff16815260200190815260200160002060006101000a81548160ff021916908315150217905550600554600a60003373ffffffffffffffffffffffffffffffffffffffff1673ffffffffffffffffffffffffffffffffffffffff168152602001908152602001600020819055503460066000828254611bdc9190612a5e565b925050819055503373ffffffffffffffffffffffffffffffffffffffff167fd2dff949d20e874cc6ba1dcefb840fb8cf6000a4197bfb69accfea5a32443ff560055434604051611c2d92919061244e565b60405180910390a2565b60096020528160005260406000206020528060005260406000206000915091509054906101000a900460ff1681565b60055481565b600080600e600084815260200190815260200160002054600c54600e600086815260200190815260200160002054101591509150915091565b60005b600780549050811015611d69576000600d6000848152602001908152602001600020600060078481548110611ce057611cdf612739565b5b9060005260206000200160009054906101000a900473ffffffffffffffffffffffffffffffffffffffff1673ffffffffffffffffffffffffffffffffffffffff1673ffffffffffffffffffffffffffffffffffffffff16815260200190815260200160002060006101000a81548160ff0219169083151502179055508080600101915050611ca8565b506000600e60008381526020019081526020016000208190555050565b600081519050919050565b600082825260208201905092915050565b60005b83811015611dc0578082015181840152602081019050611da5565b60008484015250505050565b6000601f19601f8301169050919050565b6000611de882611d86565b611df28185611d91565b9350611e02818560208601611da2565b611e0b81611dcc565b840191505092915050565b60006020820190508181036000830152611e308184611ddd565b905092915050565b600080fd5b6000819050919050565b611e5081611e3d565b8114611e5b57600080fd5b50565b600081359050611e6d81611e47565b92915050565b600073ffffffffffffffffffffffffffffffffffffffff82169050919050565b6000611e9e82611e73565b9050919050565b611eae81611e93565b8114611eb957600080fd5b50565b600081359050611ecb81611ea5565b92915050565b60008060408385031215611ee857611ee7611e38565b5b6000611ef685828601611e5e565b9250506020611f0785828601611ebc565b9150509250929050565b60008115159050919050565b611f2681611f11565b82525050565b6000602082019050611f416000830184611f1d565b92915050565b600060208284031215611f5d57611f5c611e38565b5b6000611f6b84828501611ebc565b91505092915050565b7f4e487b7100000000000000000000000000000000000000000000000000000000600052602160045260246000fd5b60048110611fb457611fb3611f74565b5b50565b6000819050611fc582611fa3565b919050565b6000611fd582611fb7565b9050919050565b611fe581611fca565b82525050565b60006020820190506120006000830184611fdc565b92915050565b6000819050919050565b61201981612006565b82525050565b60006020820190506120346000830184612010565b92915050565b6000602082840312156120505761204f611e38565b5b600061205e84828501611e5e565b91505092915050565b61207081612006565b811461207b57600080fd5b50565b60008135905061208d81612067565b92915050565b6000602082840312156120a9576120a8611e38565b5b60006120b78482850161207e565b91505092915050565b6120c981611e93565b82525050565b60006020820190506120e460008301846120c0565b92915050565b600481106120f757600080fd5b50565b600081359050612109816120ea565b92915050565b6000806040838503121561212657612125611e38565b5b600061213485828601611ebc565b9250506020612145858286016120fa565b9150509250929050565b600381106121605761215f611f74565b5b50565b60008190506121718261214f565b919050565b600061218182612163565b9050919050565b61219181612176565b82525050565b60006020820190506121ac6000830184612188565b92915050565b600080604083850312156121c9576121c8611e38565b5b60006121d78582860161207e565b92505060206121e885828601611ebc565b9150509250929050565b60006040820190506122076000830185612010565b6122146020830184611f1d565b9392505050565b7f4e487b7100000000000000000000000000000000000000000000000000000000600052602260045260246000fd5b6000600282049050600182168061226257607f821691505b6020821081036122755761227461221b565b5b50919050565b7f556e617574686f72697a65643a20496e73756666696369656e7420726f6c6500600082015250565b60006122b1601f83611d91565b91506122bc8261227b565b602082019050919050565b600060208201905081810360008301526122e0816122a4565b9050919050565b7f4d656d62657220646f6573206e6f742065786973740000000000000000000000600082015250565b600061231d601583611d91565b9150612328826122e7565b602082019050919050565b6000602082019050818103600083015261234c81612310565b9050919050565b7f4d656d626572206973206e6f74206f7665726475650000000000000000000000600082015250565b6000612389601583611d91565b915061239482612353565b602082019050919050565b600060208201905081810360008301526123b88161237c565b9050919050565b7f4e487b7100000000000000000000000000000000000000000000000000000000600052601260045260246000fd5b7f4e487b7100000000000000000000000000000000000000000000000000000000600052601160045260246000fd5b600061242882612006565b915061243383612006565b925082612443576124426123bf565b5b828204905092915050565b60006040820190506124636000830185612010565b6124706020830184612010565b9392505050565b7f4f6e6c79206f776e65722063616e2063616c6c20746869732066756e6374696f60008201527f6e00000000000000000000000000000000000000000000000000000000000000602082015250565b60006124d3602183611d91565b91506124de82612477565b604082019050919050565b60006020820190508181036000830152612502816124c6565b9050919050565b7f4d656d62657220646f6573206e6f7420657869737420696e2074686973204b7960008201527f6500000000000000000000000000000000000000000000000000000000000000602082015250565b6000612565602183611d91565b915061257082612509565b604082019050919050565b6000602082019050818103600083015261259481612558565b9050919050565b7f4e6f742061206d656d6265720000000000000000000000000000000000000000600082015250565b60006125d1600c83611d91565b91506125dc8261259b565b602082019050919050565b60006020820190508181036000830152612600816125c4565b9050919050565b7f4e6f742061637469766500000000000000000000000000000000000000000000600082015250565b600061263d600a83611d91565b915061264882612607565b602082019050919050565b6000602082019050818103600083015261266c81612630565b9050919050565b7f4e6f7420616c6c206d656d62657273206861766520636f6e747269627574656460008201527f20666f722074686973207475726e000000000000000000000000000000000000602082015250565b60006126cf602e83611d91565b91506126da82612673565b604082019050919050565b600060208201905081810360008301526126fe816126c2565b9050919050565b600061271082612006565b915061271b83612006565b9250828203905081811115612733576127326123ee565b5b92915050565b7f4e487b7100000000000000000000000000000000000000000000000000000000600052603260045260246000fd5b7f4f6e6c792063757272656e74207475726e20726563697069656e742063616e2060008201527f7061796f75740000000000000000000000000000000000000000000000000000602082015250565b60006127c4602683611d91565b91506127cf82612768565b604082019050919050565b600060208201905081810360008301526127f3816127b7565b9050919050565b7f416c726561647920636f6e6669726d6564000000000000000000000000000000600082015250565b6000612830601183611d91565b915061283b826127fa565b602082019050919050565b6000602082019050818103600083015261285f81612823565b9050919050565b600061287182612006565b91507fffffffffffffffffffffffffffffffffffffffffffffffffffffffffffffffff82036128a3576128a26123ee565b5b600182019050919050565b7f4e6f7420656e6f75676820636f6e6669726d6174696f6e730000000000000000600082015250565b60006128e4601883611d91565b91506128ef826128ae565b602082019050919050565b60006020820190508181036000830152612913816128d7565b9050919050565b7f416c726561647920737461727465640000000000000000000000000000000000600082015250565b6000612950600f83611d91565b915061295b8261291a565b602082019050919050565b6000602082019050818103600083015261297f81612943565b9050919050565b7f496e636f727265637420636f6e747269627574696f6e20616d6f756e74000000600082015250565b60006129bc601d83611d91565b91506129c782612986565b602082019050919050565b600060208201905081810360008301526129eb816129af565b9050919050565b7f416c7265616479207061696420666f722074686973207475726e000000000000600082015250565b6000612a28601a83611d91565b9150612a33826129f2565b602082019050919050565b60006020820190508181036000830152612a5781612a1b565b9050919050565b6000612a6982612006565b9150612a7483612006565b9250828201905080821115612a8c57612a8b6123ee565b5b9291505056fea26469706673582212200bc56940129f50993607856ea3b7cca64c653e87b1480cfd5bf361a36d934fdb64736f6c63430008180033",
  "linkReferences": {},
  "deployedLinkReferences": {}
}